:02000004C0D06A
:10000000F0B58BB0044662B6002C09D00120000286
:100010002168814202D0022006F04AF8606803E0BD
:100020002548784405F06AFD2049086004F00AFA82
:100030001F4C224D7D440026B0222046314604F05C
:10004000AFFA6F46384607F035FC388580B2002895
:1000500002D01028EFD024E06F46384604F0F5F9BE
:1000600004F092FC01F012FE304607F071FA012014
:1000700007F06EFA0F48066030462946324605F012
:10008000FFF800F0A9F804F04DFBB84203D104F0EA
:100090004BFB04F0DAF96846008D0028CBD004F061
:1000A0003CFB04F0ABF900200BB0F0BD241C002099
:1000B0002C1C0020301D00204E850000D47B000049
:1000C000F0B58BB03B483C4C002626522120000165
:1000D00026546D46284607F0EDFB288581B200299D
:1000E0000FD010295FD069460E8535496F220A70FE
:1000F000304A0223A35248700121204602F0A6F89C
:1001000042E0684604F0A1F9208802F0A6F82178C0
:100110002A4800292DD12A4948780A782A4D7D4459
:100120002A4F7F443346A95D8A4202D1B95D884295
:1001300008D05B1C761C0E2EF5D36D200002D9B2C0
:100140000E2916D022487844805D00280AD08320EA
:100150008200672000021A490979002909D0A15AB2
:10016000052906D0B0001B497944085805F0C6FCA3
:100170008047144960520F49625A030A104DAB542C
:10018000AB185870901C605204F0CCFA6946884253
:1001900003D104F0C9FA04F058F96846008D00282C
:1001A00006D10BB0F0BD68460685102004F0B5FA04
:1001B00004F0B3FA0E02000074180020AA6F0000C9
:1001C0006C1E002012020000EF780000F978000099
:1001D000E3780000D078000070B50D480024FF22BD
:1001E000214604F0DDF90B480B4D2C52212006016D
:1001F000AC552046C0B2A1B204F0E0FD83218900D5
:100200006852FFF75DFF03482C5AA85DF2E7C0462D
:100210006C1E00200E02000074180020F0B581B0A2
:100220001F4C204605F06AFC808802F016F8204634
:1002300005F064FC00791B4CFF282ED0184805F00F
:100240005DFC0079002828D0174C208C010A174D3E
:1002500029706870608C010AA970E8702420205C05
:1002600028713727E25D6A71A81D2146253104F007
:10027000A0F93826A25DE05D811DC9B26A54C71D90
:10028000F8B228182146323104F093F9A05DC01964
:10029000C0B20749605209200403204601B0F0BDF6
:1002A0008089D0C085690000741800206C1E002071
:1002B0000E02000080B50E4805F020FC8079012177
:1002C00008401B2242400B4802703022427081706D
:1002D0000222C27005220271417100218171032145
:1002E000C1710548054908220A520920000380BD52
:1002F0008089D0C06C1E00200E02000074180020FF
:10030000B0B5134C204605F0F9FB808801F0A5FF3D
:10031000204605F0F3FB00790E4CFF2816D00C4860
:1003200005F0ECFB0079002810D06B2004020A4D88
:10033000A87800280AD1064805F0E0FB007928706B
:100340000648074901220A52092004032046B0BD8D
:100350008089D0C0856900006C1E00200E0200005C
:100360007418002010B50720C0430A4909790029F4
:1003700000D00846C4B267200002F82C08D805480F
:10038000214605F051FD044804490C5209200003A0
:1003900010BDC0466C1E00200E0200007418002024
:1003A000F0B5AFB0534C2679534D284605F0A6FB67
:1003B000808801F052FF284605F0A0FB00794F4AE3
:1003C000042800D98FE001252946814016200142EA
:1003D00000D188E0A1786B200702002080291CD082
:1003E000002900D080E0601D029600262946039275
:1003F000324601F0DFFD4121C900414A50501675D7
:10040000812080001654D6774520800015547F2027
:1004100080001654029E039A0420E178002963D1DB
:1004200003922118491D6A023346354EB150181AFD
:1004300034497054284601F0D7FF3146092007039C
:10044000087D082850D100260E7581208000085CA8
:1004500000284CD004AA01926846026008463C304D
:10046000012529463246334602F0D4FC0821039187
:10047000204605F0D9FC3220207066700CAE304664
:1004800005F01CFD201D69460860202302933046BC
:100490002946019A02F0BEFC4120C000184D29589F
:1004A0002046243001F0AFFD204628302946153182
:1004B000039E324604F07DF80F4805F01FFB27AD80
:1004C00069460D60083030230299224602F0C9FCCB
:1004D000303420462946324604F06BF80A48382169
:1004E000074A115200E01746B8B22FB0F0BD039F83
:1004F000FB37F9E76C1E00208089D0C085690000B9
:1005000074180020FF0100000E020000F0B5A1B039
:10051000834805F0F3FA8179012631406B2005020A
:10052000804CA078012800D9F6E00791E778022FE7
:1005300006900ADC002F14D0022F00D0ECE07A489D
:100540000068006A00280CD1E6E0032F02D0042FD7
:1005500007D0E1E0744800682821405C022800D000
:10056000DAE0672005022079002800D1D4E0611D7F
:1005700016A8292204F01DF8694D284605F0BEFA98
:10058000808801F06AFE284605F0B8FA6749CD1C5C
:100590000079042800D9BFE086401620064200D129
:1005A000BAE0059105F042FD00282DD060A004F0CE
:1005B000EFFE16A801210EAA01F0E7FD41252570E6
:1005C0000798002804D15C48083001F0DBFB2125A6
:1005D000661C594908314122304603F0EAFF002FDA
:1005E00016D0032F12D1E9B208AD30462A4601F0E9
:1005F00047FD002069460860224643321421322319
:10060000284602F07FFB47E0059D85E0022F37D1A9
:1006100008AA3046002104911170142103915170F1
:10062000E9B2961C324601F02BFD022F1CD1039F2C
:1006300004963D480068006A0028079E2ED005F009
:100640005DFA014668460760274643370022384670
:10065000049B05F029FB0546E8B201281ED1384667
:1006600007F04AF9054619E03448408C69460860AD
:10067000049848602246433208A81621962309E0D0
:100680002E48008C00216A4603C2E9B2224643325A
:100690009623304601F015FD0546079E422025545D
:1006A000002E01D104206070EEB2A7193846433005
:1006B0000EA9202203F07DFF3046633020491F4BF6
:1006C0005852092005030698012825D1059AFE32C3
:1006D000322E01D915461FE02046C830433421464A
:1006E000144632461E4603F064FFC82000210791DD
:1006F0003954374621200601B85D10210143B95510
:1007000003F012FE002807D1B85DEF210140B95572
:100710000B48079939522546A8B221B0F0BDC04612
:100720008089D0C06C1E0020241C0020826900003B
:1007300070696E206F6B0A0000180020741800208A
:100740000E020000B0B5002169238522002807D0E1
:100750000C480D49085A0D4941180B32002001E0A0
:1007600010461A468BB20A4CE2548A1C054B064DC1
:10077000EA52491C89B2605491B2202004F01EFB59
:10078000B0BDC0460E02000074180020FEFF00003D
:100790006C1E0020F0B59FB0F14B9C786B210E02CF
:1007A0001979002C04D0FF2C02D0802C00D0B5E0A9
:1007B00007910B90EB48EC4A7F2189000A91515C2C
:1007C000002780260029069617D01546105C0028C1
:1007D00014D1587931467D31C9B2012788420DD3F1
:1007E00032467E32D6B205220023B04200D01A46ED
:1007F0000327884202D0174600E015460CAE30466B
:1008000007F058F83085D949084205D00CA80021D6
:1008100001856F20040258E00CA803F016FE287D25
:10082000D34A09284CD109200603069B7F33D8B24E
:10083000844276D12946487F002800D169E1D14819
:100840000D46085C002814463BD0002198220B98E6
:1008500003F0A6FEC249487900282C4600D158E191
:100860000B9F3D466D35491D2922284603F0A1FE08
:100870000121002228461546049101F086FCC24859
:1008800005F03CF98079C0074121002804D1BF4818
:10089000083001F077FA2121BC48083089B23A4685
:1008A000593201F0EDFBBA48201858371522394665
:1008B00003F07FFEB14804992154B248255428E141
:1008C000144603F031FF03F0C0FD2F4600203875B9
:1008D000AB4D7853E5208600BA5BA6483918A0488E
:1008E00003F067FEB85B7853264603F01BFF0CA9A4
:1008F000884203D103F018FF03F0A7FDE520800034
:1009000000243C52E920800001213954A1483818C4
:100910000822214603F044FE9F483C54B0B21FB069
:10092000F0BD0992FF2040000890285C00280ED1FD
:10093000002168460160F8B2079A1C46131A884ADB
:100940001018421D28463C3002F064FA2346687FA6
:1009500000282C4653D0E52087002546E05B079A07
:100960008118099CFB34C829ABD805932818814904
:1009700040187B49491D144603F01BFEE85B001933
:10098000E8532C467C4800682821405C12281AD184
:1009900000F0EEF9012804D121200001205CC006FE
:1009A000F6D57320C0002058002828D1212000014E
:1009B000215C1022114222D111432154E9208000F0
:1009C000032121541BE0674865498978069A9142C2
:1009D000DED1205C0028DBD1012003F089F800285B
:1009E000D6D021200001215C10220A432254E920A4
:1009F0008000059921547320C000002121500A98DD
:100A0000205C574A9178002920D000280B9F0ED1F6
:100A100017A8694608602046A830521D0121079B8F
:100A200002F0F8F94E490A98205C002849D008984D
:100A3000205C00281ED017A8694608602320C0004B
:100A400022182046A8300121602337E0002809D170
:100A50000021684601602046A830521D079B02F025
:100A6000D9F93F4A002010704548012121523D48E4
:100A700021544EE02B20C000271868460760254609
:100A80003C35012102910023039328463A4602F0A7
:100A9000C1F9284605F012FA684607602023284667
:100AA000029D29463A460B9F02F0B4F917A8694601
:100AB00008602046A8302A4A2946039B02F0AAF97A
:100AC0002749607F002829D02C48205C002804D1C9
:100AD00000219822384603F063FD2020205C7870C6
:100AE0002220205CB87038462330082105F09CF99C
:100AF000607F00211A4A117051702149022262520E
:100B0000F91C002813D017AB20220846194603F021
:100B100050FD03F009FE03F098FCFFE6002008708A
:100B200048701748022125462152F91C00E025464D
:100B300017A8202201F02FFA0028099C00D0C0E657
:100B40002F460A98395C0A20002906D0089AB95C19
:100B5000002902D10120B85400203875C5E6C046EE
:100B60006C1E0020CA02000074180020FFFF000065
:100B700085690000CB020000241C0020C702000091
:100B80000E020000C90200008089D0C000180020B9
:100B9000B2020000A5030000AD03000070B54320C1
:100BA000C000134D2818FFF7F5FD0446212006016B
:100BB000A85DC0061AD5E9208000285CFF2804D073
:100BC000032805D103F0F2FA04E003F017FA01E07C
:100BD00003F076FA002809D1A85DEF210140A9555C
:100BE0000020287503496852D520C401204670BDF5
:100BF000741800200E020000F0B583B009210F0325
:100C0000534D002854D07320C400524E3059E9216E
:100C10008B00F15C022901D1401E30510028394679
:100C200032D00293009501974B4830181D214D0199
:100C300072598118E5239F00F35B9A1A03F0B9FCFF
:100C40007059F15B081AF05321200501705DEF2106
:100C50000140715500F08CF8715D10220A400128A6
:100C600001D1002AF6D0C806019F3946009D029B9B
:100C70000AD503F025FA01460120002965D100209C
:100C800030752946FB31029BF05C022817D132599E
:100C9000002A14D103201C46F05403F087FA0146C1
:100CA0000120002951D100223255FB3510461EE0AB
:100CB000284800210175E9229200805C1CE0FF2891
:100CC00001D003280FD100227277FF235B007F241D
:100CD000A400355D0A24002D07D0F55C002D04D159
:100CE0000124F45402E00D4602E022460D4632751E
:100CF0001A49715A1A4A89188AB22B0A194CA354F4
:100D00008A1C164B134EF252491C89B265540328B3
:100D100004D0FF2802D0A8B2B84211D0E52080004C
:100D200000243452E9208000012131540E4830184B
:100D30000822214603F034FC0C4834540748325A48
:100D400091B2202004F03AF8002003B0F0BDC04674
:100D50008569000074180020CB0200000E0200001C
:100D6000FEFF00006C1E0020A5030000AD03000084
:100D7000F0B58FB01D204601A24F0024BC51E920E0
:100D80008500785D0123FD22022824D0012800D0AF
:100D900031E1E7208600BC51E5208000395A002966
:100DA00000D109E19948385C0127059790420693E4
:100DB00049D3FE283AD0FD28924A00D01BE10329EE
:100DC00000D2F9E0B3208000115CB248105C000250
:100DD0000843032136E0E5208500795B092900D22C
:100DE000EAE08948385C904202D2069309220EE07C
:100DF00000D000E10B2900D2DEE00693B520800090
:100E0000381800210A4601F0D5F8795B0B22151835
:100E1000A94200D2D0E0002039187C4A895C401CED
:100E2000002926D100240728F6D930E00529754984
:100E300000D2C1E0B3208000081800210A4601F06A
:100E4000B9F8052105917321C9006E4F7850B8514A
:100E500002207855059E6D4838188119E5229400C6
:100E60003A5B921B03F0A5FB385B801B3853069C52
:100E7000A2E0664839180DAC0822204601F075F949
:100E8000634838180146224601F0F0F9069C0595A2
:100E90005D483D18284601F039F80390284600F0D7
:100EA000DBFF0490284601F00FF80290284601F07D
:100EB00034F80190284601F04FF801465548006883
:100EC0002825405D122816D14F483818009100F0AF
:100ED00075FF009A0499084300280CD1002C04D017
:100EE00001980243002A06D182E003980199014348
:100EF000114300297CD047480068405D122810D07B
:100F000001200021039A002A00D0084604433E48ED
:100F1000381800F053FF04990843002C01D0002832
:100F200066D03D4803990029069C3DD1385C0028D5
:100F30003AD003200421049A002A054600D10D4628
:100F40000299002900D005460498002821D07F206E
:100F50008000385C002827D0069407AC0020207061
:100F60001422049262702D483918A01C03F021FB52
:100F700016212046224601F083F8E8B238182249AB
:100F800040182146049A03F0B1FB002817D0069CB4
:100F90000AE022483918E8B238181B4A801814228F
:100FA00003F0A4FB002811D021200001395C10229D
:100FB0000A433A540598B85120460FB0F0BD154881
:100FC00000682C21405C40071AD5069C06941D48F9
:100FD000385C002812D11B48012139547320C0000D
:100FE0003958491E3950059E002E00D033E73EE7A0
:100FF0001FA004F0CDF9012003F08FFB12A0F8E749
:1010000007A0F6E774180020D3020000CB0200000E
:10101000A5030000241C0020C7020000B30200004A
:101020004572726F72203A204E6F6E207370656E3B
:101030006461626C652053656777697420636861D9
:101040006E676500AD0300004572726F72203A2032
:101050004D756C7469706C65206368616E6765209E
:101060006F757470757420666F756E640000000093
:101070004572726F72203A20556E7265636F676EAB
:10108000697A656420696E70757420736372697023
:1010900074000000CD020000F0B581B0384E357903
:1010A000384C204604F02AFD808801F0D6F820460E
:1010B00004F024FD0146344FF81C097904295DD859
:1010C0000095012422468A4016210A4256D0B17862
:1010D0006B200002802908D000294FD12B4A002321
:1010E000137545239B000325D554F578032D36D879
:1010F000012D34D0002934D1294621430020032971
:1011000000D00446214A507F002805D104F08EFF0C
:101110001E4A0028384631D0012757770021D17761
:1011200091777F2080001454032D384600D0084664
:10113000174A12682823D25C022A3A4600D00A468F
:101140001040FF225300FE32104CA054E1541148CD
:101150002018192203F024FA0F48275401E0802DAB
:101160000CD101204002711D084A11500B48009912
:101170001154022001F038F90920000301B0F0BD3C
:101180006C1E00208089D0C0826900007418002085
:10119000241C0020B2020000C9020000FF01000070
:1011A000F0B5EFB0624C204604F0A8FC808801F056
:1011B00054F8204604F0A2FC00795E4F04283CD885
:1011C0000124214681401620014236D05A4E6B2020
:1011D0000002B178002902D0F17800292ED16720D1
:1011E00000023179072929D306AD284606F062FBB3
:1011F00028855249084205D006A8002101856F20A4
:1012000007020EE006A803F020F94D48007D0A28E9
:1012100003D1FB3770790B2813D303F085FA03F061
:1012200014F947480021017503F07CFA06A98842A9
:1012300003D103F079FA03F008F9384680B26FB0B1
:10124000F0BD751D2CA82922294603F0B2F970794A
:1012500080002043295C28184518681C002221467C
:1012600000F0A8FE05906D79314804F047FC8079C4
:1012700040070DD4334800682821415C022902D080
:10128000416A002951D0412DC7D1406A000205436F
:1012900004954320C0002A49091837A8982203F072
:1012A00088F92CA800210A4600F06FFF6DAF384680
:1012B000059900F0A8FE381D294600F0A4FE65AD92
:1012C000684605601E483C30082321463A4601F036
:1012D000A1FD11AF384604F0F1FD5DA90391684608
:1012E00001602023384621462A461D4601F092FD22
:1012F0000F4804F003FC8079400820406946FF2233
:1013000052320E604A6088600F482146039A2B468D
:1013100000F070FF7078C11C0C4A094B99523018CC
:1013200004998170092007037EE7012DB0D074E78E
:101330008089D0C0856900006C1E0020FFFF00007E
:1013400074180020241C00204C1800200E020000FD
:10135000F0B581B06B2007023A4EB578012D6CD8FC
:10136000307967210F02002D02D0192802D964E0DC
:10137000052862D1344C204604F0C0FB808800F080
:101380006CFF204604F0BAFB304CE71C0079FF28C4
:1013900053D02D4804F0B2FB007900284DD004F062
:1013A00045FE002848D0707AFE34012810D003286A
:1013B00008D0022840D1264909682C22895C890777
:1013C00006D439E0224909682822895C122933D1E0
:1013D000B179727912020A431E4B1A84317AF2797A
:1013E00012020A435A842421585409200003012D73
:1013F00026D1B17A0D460B350D291DD8725D052A0F
:1014000027461AD80090184625300C4631460B3135
:101410001746224603F0CDF837200E4A1454E8B29E
:101420003018411C1046144632303A4603F0C1F8D9
:1014300038202754009F00E02746B8B201B0F0BD25
:101440000746FAE76C1E00208089D0C08269000040
:10145000241C002074180020F0B581B0672006021B
:10146000234D287901283FD1224C204604F046FB29
:10147000808800F0F2FE204604F040FB00791E4F09
:10148000FF2830D01B4804F039FB007900282AD00F
:10149000FE1E04F0CBFD002826D06C79154804F020
:1014A0002DFB09210D03007984421AD03E46FB36FC
:1014B000082C19D80120A0408B214900084213D0E4
:1014C0000C4E304604F01AFB408800F0C6FE304651
:1014D00004F014FB408820423E4605D0204600F030
:1014E00059FC2E4600E03E46B0B201B0F0BDC04609
:1014F0006C1E00208089D0C0856900006D2000022C
:1015000070470000F0B58BB009AD002106262846D3
:10151000324603F045F80A200A9901432971012453
:101520002846214600F092FE02202843214600F082
:101530008DFE114F384604F0E1FA801C29463246F0
:1015400004F05CFC6D4620262846314604F06CFC15
:10155000384604F0D3FA08302946324604F04EFCEF
:1015600008AD2C70384604F0C9FA401C29462246C2
:1015700004F044FC0BB0F0BD8089D0C0F0B581B060
:10158000017800250091002918D0441C002701256E
:10159000002620462946324600F00CFD80B209495B
:1015A00088420BD00849884207D0241D7F1CF8B21E
:1015B000009988423546EAD300E00225E8B201B03E
:1015C000F0BDC0461DB100001EB10000F0B597B0DF
:1015D000A34A9778802038436B210C02802800D0E2
:1015E00014E110790890D578002F04D1022D02D390
:1015F000802D00D00AE1D520C6013446FE3C04F01F
:1016000015FD002800D101E109960CAE304606F028
:1016100051F930859349084205D00CA80021018575
:101620006F200402E1E00CA802F00FFF0920040380
:10163000002F15D08C488D4D285A2B2109010028E8
:1016400000D1CDE0695A814200D0C9E0884828180D
:10165000FFF794FF002862D000F014F90446CCE0B4
:10166000012D2AD84320C000804F38180026982228
:10167000314602F095FF7A4A50790B2800D3AFE04B
:101680002020385C7C4978542220385C7B4978548F
:1016900077483818511D1746292202F08AFF7879B9
:1016A0008000012318433A185179002D06933DD04C
:1016B000927909021143072239E06B486B4A105AAC
:1016C0002B210D01515B089E8919814200D987E0C9
:1016D00000276846076010463C3061494A1D029267
:1016E0003946334601F096FB684607605F48A830EC
:1016F0003946029A334601F08DFB5C48405B801905
:101700005A4B5853564D2F705749595A82B201209F
:10171000914201D16F700220564958526DE021204C
:101720000001295C10220A432A546BE006224F4F25
:101730004D4BF9521018002952D007902B20000170
:1017400004903E523D463C35284604F0B7FB3846EF
:10175000A830059004F0B2FB37200390385C1130BC
:101760000BAA10706846066028463146069B01F0B9
:1017700051FB03983B5C684606603A462532284692
:10178000314601F047FB684606603D4A7A44112322
:101790002846314601F03EFB069B3348385AFD2867
:1017A000314606D30AA9FD220A704870000A0323B5
:1017B00002210AAA5054684606602846314601F0C4
:1017C00029FB0898FB382E46079D401B0BA9087083
:1017D000049AB95AC3B2C8182349795A884218D909
:1017E00002F0A2FF02F031FE099C4320C0001F4915
:1017F00008180021982202F0D3FE02F093FF0CA9F2
:10180000884203D102F090FF02F01FFEA0B217B091
:10181000F0BD314600266846066011484719084663
:1018200031463A4601F0F6FA0BAD2B786846066071
:10183000059831463A460D4F01F0ECFA084B049AF0
:10184000B85A29784018B8521E700749795A82B29E
:101850000120914201D15E70022006497852CCE706
:101860006C1E0020FFFF0000AE0200007418002074
:10187000850200000E020000190200001A0200009A
:1018800070620000F0B597B03248334E00253552F3
:1018900004AC204606F00EF820853049084204D0FA
:1018A00004A805856F2004023BE004A802F0CDFDEA
:1018B0000FAC68460460284E3C36012500273046B0
:1018C000294622463B4601F0A5FA304604F0F6FAD6
:1018D000684604602023039330462946224601F0DF
:1018E00099FA1F481C49081839463A4600F04DFC41
:1018F0001C4804F003F98079400828406946886054
:1019000064204860184E0E60184829462246039B02
:1019100000F070FC7078104E801C0E497052092047
:10192000040302F0FFFE04A9884203D102F0FCFE8A
:1019300002F08BFD4320C00030180021982202F0F5
:101940002FFE04A8008D002802D1204617B0F0BD5C
:1019500002F0E3FE0E02000074180020FFFF0000FA
:10196000850200008089D0C06C1E00204C18002029
:10197000B0B521200501FFF729FE04460348405D6C
:10198000C00601D502F074FC2046B0BD74180020DA
:10199000B0B5014669228520002902D0FFF772FF09
:1019A000020A0749074B5C5A074D2A55A21C5A5296
:1019B000611C89B2685491B2202003F0FFF9B0BDD8
:1019C0000E020000741800206C1E00206D20000222
:1019D00070470000F0B5B7B01D4614460F460146EB
:1019E0001A2F79D230A83A4602F0E3FD0022002FE8
:1019F00009D00022D0B230A9085C002803D1521CC3
:101A0000D0B2B842F6D30495019478000392D5B2CF
:101A1000BD42029004462AD2029C039E059706947A
:101A2000F0B20021B8420FD205990F1A30A90C1854
:101A300000210902207808433A2105F09FFE20701A
:101A40007F1E641C002FF4D130A8425D25487844E5
:101A5000405C069C641EE1B207AB5854701C002A1F
:101A600000D03046C5B2059FBD420646D7D3E1B28D
:101A7000029FB9420DD21C4878440078049B039E13
:101A800007AA515C814206D1641CE1B2B942F7D386
:101A900001E0049B039E300610D01448784400787F
:101AA000254621463246491ECBB207ACE054521EB1
:101AB000FF231A42F7D12C46A41B049BE0B2391A2B
:101AC000CEB2B3420BD307A909180198324602F0EF
:101AD00070FD304637B0F0BD022002F01EFE03203C
:101AE00002F01BFE745F00004A5F0000265F0000EA
:101AF000F0B595B0029063480068C46A0AAD2A2127
:101B0000284605F041FE022005430595610001408D
:101B10000D220A4303924140881D009013220020A9
:101B20000190014602980491405C069001990720BB
:101B30000991401A012108918140069801400791BE
:101B4000D0B214280ED815210B1A41000AAC651822
:101B50002C88E11C042C00D8214629805B1EAD1C7A
:101B6000002BF5D141000AAB595AFF30072900D8A4
:101B70001046C1B2132917D81422521A4900059BE6
:101B80005B180AAC655A1E8801240027072E2146DF
:101B900000D839466D000E272F400F43E1435F52B6
:101BA0009B1C521E3546EED107990029089B00D197
:101BB0000B46149949000E220A401A430AA90A85C5
:101BC0000999491C08290246B1D10499491C0829E0
:101BD0000246A7D100212C4B0C460A460D46E0B226
:101BE00040000AAE305A2D0603D1002801D10D461F
:101BF00007E08525AD005D59D6B23030A855521C9E
:101C00000125641CE0B2039EB042E8D3110605D161
:101C100085218900595830220A700122002109913A
:101C2000009DCFB2AF420E4629D23F187F000AADC9
:101C3000ED5B761C002D04D1F7B2009DAF42F4D3CA
:101C40001DE0099D2D0608D18525AD005D59D6B250
:101C50002E27AF55521C012509958525AD005D59EC
:101C6000E6B276000AAFBE5B3036D7B2EE55521CF4
:101C7000641C491CCDB2009EB5423546D1D3D0B2CA
:101C800015B0F0BD241C002074180020F0B581B000
:101C90003B200201364D00262846314602F080FCEA
:101CA0002846314600F0D2FAE52080002E52E92085
:101CB000800001242C542F4828180822314602F0B5
:101CC0006FFC2D482E542D4803F018FF4078012852
:101CD00001D0FFF717FC294803F010FF40780028D7
:101CE00032D0274E3068018829844188698401797F
:101CF0002422A954406903F001FF05F0FDFD3727B8
:101D0000E8553068406903F0F9FE0146EA5D28466F
:101D1000253002F04EFC3068C06903F0EFFE05F09C
:101D2000EBFD3827E8553068C06903F0E7FE01464F
:101D3000EA5D3235284602F03CFC104803F0DEFE36
:101D4000808800F08AFA02E0FF2000F023F80B48B8
:101D500003F0D4FE0078002808D16D462C700748A7
:101D600003F0CCFE2946224604F048F801B0F0BD4D
:101D700074180020A5030000AD0300008089D0C0C6
:101D8000241C00204021415C01220A400221114311
:101D90000170704710B582B0014601AC204600F0DA
:101DA00055FA054803F0AAFE001D0222214604F060
:101DB00025F802B010BDC0468089D0C070B5044679
:101DC0001E4E3068016A002911D01D497944032252
:101DD000204602F08BFC012500282CD019497944BB
:101DE0000322204602F082FC002824D030682821FB
:101DF000405C15280CD1144979440422204602F095
:101E000075FC002816D118341049794428220BE0BB
:101E10000F4979440422204602F068FC002809D1C9
:101E200018340C4979440222204602F05FFC012557
:101E3000002800D00025284670BDC046241C002084
:101E4000C45B0000B55B00009E5B0000905B00007F
:101E50004A5B00003C5B0000B0B5044615480068D2
:101E60002821405C152810D11349794403222046CB
:101E700002F03CFC00281AD117341049794427227B
:101E8000204602F033FC01250FE00D49794403227E
:101E9000204602F02BFC002809D117340949794467
:101EA000012520462A4602F021FC002800D000250A
:101EB0002846B0BD241C0020FC5A0000ED5A00004A
:101EC000D65A0000C75A0000B0B504460C48006856
:101ED000006A002810D00B4979440322204602F002
:101EE00005FC0125002808D0074979440322204633
:101EF00002F0FCFB002800D000252846B0BDC046FB
:101F0000241C0020B85A0000A95A00004278012081
:101F100000216A2A00D008467047B0B50546FFF791
:101F20004DFF0024002815D12846FFF795FF002813
:101F300010D168786A280DD028783E21C9432A310B
:101F4000CAB2C121904205D22A5C012400208A42F3
:101F500000D004462046B0BDB0B50546FFF72EFFC1
:101F60000024002815D12846FFF776FF002810D15D
:101F700068786A280DD028783D21C9432931CAB232
:101F8000C221904205D22A5C012400208A4200D05E
:101F900004462046B0BD70B50023002A08D00023B7
:101FA000521E94B2055D0E5D6E403343002CF7D196
:101FB000D8B270BDF0B582B0019200900720C04346
:101FC0000824002900D004461825002900D10D4618
:101FD00000263146C21D7243009B9F5C7F233B401D
:101FE000002E3A4600D11A46019B002B00D017461E
:101FF000EAB2974079181519761E32460432E9D1B3
:10200000084602B0F0BD01700A0A42700A0C8270E4
:10201000090EC1707047000070B58CB00C460546C3
:1020200001AE304605F046FC30851249084210D119
:1020300001A802F00AFA212020220F4B294603F0C2
:102040006FFF002C05D021200C490B4A012303F01F
:102050007FFF02F067FB01A9884203D102F064FB15
:1020600002F0F3F901A8008D002801D10CB070BD79
:1020700002F053FBFFFF00004C1800200018002066
:10208000F0B5A7B00392029104460CAD284603F0C8
:1020900015FF04AE684606600127284639462246E9
:1020A000029B00F0B7FE284603F0F2FE6846039953
:1020B0000160202328463946324600F0ABFE27B0A7
:1020C000F0BDF0B5AFB00646349C02250120FF2CD0
:1020D00000D80546359800280492039308D01420B0
:1020E0002843C2B228A8314602F063FAEDB20FE0ED
:1020F000EDB228A842193046FFF7C2FF210A00209E
:10210000002902D028A80170012028A901430C70E1
:10211000029505AC204603F0D1FE20AF684607606B
:1021200014232B43012528AE20462946324600F0D1
:1021300071FE204603F0C2FE684607602023204659
:1021400029463A4600F066FE029C301914300422FB
:10215000394602F02EFA182121430398C3B23046C3
:10216000049AFFF737FC2FB0F0BD10B5002A0BD052
:102170005242491E0023DB431C4654430C5D04704D
:10218000521C401C002AF7D110BDF0B595B0029248
:1021900002780B2A2BD20191002A14D0401C002473
:1021A0002546182721462646435CFFB2BB409E19B0
:1021B000491C083F0429F7D1A9000BAB5E506D1CE8
:1021C000001D9542EDD168460299016021200BA9BE
:1021D00003AD2B4603F012FF28460199FFF71CFFC1
:1021E00000212022284602F0DBF915B0F0BD0220C4
:1021F00002F093FAF0B585B014460A9D002916D076
:102200000C9F0021049104AE694668C10D490E4A35
:10221000002F00D111460322234600F06BFE3078D8
:10222000C0070DD0287801210143297008E00B99DF
:102230006A4628C2116001210322234603F0C0FE32
:1022400005B0F0BD01060000010400000A020A43C7
:10225000FF21090251400180704780B5FF21814371
:10226000000A884201D003F0B5FD80BDF0B582B010
:102270000023DC430194C91DD21DC51D1E460093D9
:102280001846019F7743D35DCC5DC0B22018C318B8
:10229000EB550120FF2B00D80098761C082EF0D1BA
:1022A00002B0F0BDF0B583B00023DC430294C91D39
:1022B0000191D21DC01D1D4600931E46029C6C4319
:1022C000175D01990B5D310602D0BB4202D95B1E3E
:1022D000009901E0FF3331469BB2DE1B0655012613
:1022E000BB4200D30E466D1C082DE7D1F0B203B0FF
:1022F000F0BD0000F0B581B00446452087000F4DC9
:10230000E85D012630420AD070022A580021684652
:10231000016028463C30234600F07CFDE85D8007E4
:1023200009D570022A58002168460160A835284660
:10233000234600F06FFD01B0F0BDC04674180020C8
:10234000F0B581B02648274E305C002841D00124EA
:102350006702F0590578FC2D2ED9FE2D19D0FD2DE0
:102360003AD12046FFF7C6FFF059411CF1511C49F4
:10237000725CFF327254D1B201292AD9417800919E
:10238000857802242046FFF7B5FF2D02009805430B
:1023900015E02046FFF7AEFFF059401CF051104900
:1023A000725CFF327254D1B2032912D900210A465D
:1023B000FFF700FE054604242046FFF79BFFF05977
:1023C0000019F0510648315C091B3154284601B010
:1023D000F0BD012002F0A1F9022002F09EF9C046F2
:1023E000FF01000074180020F0B5BBB01990E6485A
:1023F00003F084FB857930AC204605F05BFA20853C
:10240000EF08012117910F4080B2002800D0D3E3DC
:1024100030A802F01AF81AA8C01D169022A8011DB3
:10242000149128301590D94D18970EE0E0B2FFF7BF
:1024300061FF17984002295809192950D448295C8E
:10244000091B29542869001B2861297D4CE0199932
:1024500002291BD17F218900695C002912D0FF214C
:102460004900695C002911D00021684601607D2087
:1024700080002A1828463C30082300F0CBFCC448D2
:10248000285C03E04521890003226A54C0B2032876
:1024900000D88EE3FF2040007F218900695C00297D
:1024A0000ED0285C00280BD1179840022A58002132
:1024B00068460160612080002818042300F0AAFC0F
:1024C0000420FFF717FF179A50022958091D2950B9
:1024D000AF48295CFC312954A868401EA860E86810
:1024E000401CE86011462975C8B204280DDD072894
:1024F00016DC052800D136E106281CD00728F3D1C8
:102500002C690821002CEED03AE301280CDD0228CA
:1025100000D107E3032831D00428E5D1A868F1E011
:1025200008380328E0D235E3002800D192E00128E2
:10253000DAD1A8686DE19648285C002800D129E32B
:10254000032800D835E30420FFF7D4FE1798400293
:102550002958091D29508E482A5CFC322A5408212A
:10256000FF200242BFD04520840000202855FFF7FD
:10257000E7FE2861179828550721B4E71998022823
:1025800000D0B3E0FF204300E85C7F218E00AA5D0D
:10259000002A4BD0002849D122A908916846016041
:1025A0002320C0002C18012102910022079220460E
:1025B00009940E96089E32460D93079B00F02AFC64
:1025C000204603F07BFC68460660202306932046E5
:1025D000029C2146324600F01DFC1AAE6846066099
:1025E000612080002F18384621463246079B00F0B4
:1025F00011FC384603F062FC684606603846189FB6
:1026000021463246069C234600F004FC09980899AE
:10261000224601F0CEFF2720C0002818314622466E
:1026200001F0C7FF0D98285C0E996A5C0921002A09
:1026300000D158E7002800D155E700216846016025
:102640002B20C0002A1828463C30202300F0E2FB53
:102650000A2148E70027AF60EF602F612846153058
:102660000822394601F09CFF2C463C34204603F0FA
:1026700025FC2E46A836304603F020FC7F20800043
:10268000285C002800D18FE0452080002F54FF20D7
:102690004000285C00287DD0684607601F200001AC
:1026A0002A1804232046394600F0B4FB6846076028
:1026B0002320C0002A180592202003902046394686
:1026C000039B00F0A7FB684607602720C0002A187C
:1026D00020463946039B00F09DFB68460760602357
:1026E00030463946059A00F095FB5DE02848285CA5
:1026F000002800D14EE2FFF723FE0021A860E96028
:10270000042129750621002800D1ECE62048285C28
:10271000002800D13EE2072800D84AE21998012893
:1027200010D14120C0002858E96881420AD1179C85
:102730006002295828461530082201F03AFF81200E
:1027400080002C540820FFF7D5FD17984002295827
:10275000083129500E48295CF8312954FFF7F0FD63
:102760002861052028750A48285C002800D111E25C
:102770002C69002C00D007E2A868401EA860E86819
:10278000401CE8600421AEE68089D0C074180020A7
:10279000FF0100002320C000281803F08FFB6120F8
:1027A0008000281803F08AFBF448285C032800D82E
:1027B000FFE101267702E9591F20000128180424AF
:1027C000224601F0F6FE2046FFF794FDE859001D71
:1027D000E851EA49685CFC3068542421FB4A1268DD
:1027E000D26A920710D5695C02290DD1C0B20328C4
:1027F00000D8DEE10420FFF77DFDE859001DE85117
:10280000F548295CFC312954FFF79AFDA8602E7524
:10281000189F002800D1AEE1EF48285C002800D1C5
:10282000B8E101241999022915D019990F460129F7
:10283000264600D058E1232800D8BAE12420FFF72B
:1028400059FD01267002295824312950E248295C9B
:10285000DC31295448E1012800D8AAE10121119175
:102860004902109169580A780023DF43022A3ED0BA
:10287000012A00D184E0002A00D09AE17F20800064
:10288000285C002800D094E12746D14C20461293C2
:1028900003F034F98088FFF7E0FC20463C4603F063
:1028A0002DF90079042808D0022806D0012800D08C
:1028B0007FE11898002800D17BE1109FE859401C67
:1028C000E851C548295C491E2954C8B2232800D8BC
:1028D0006FE12420FFF70EFDE8592430E851BE488F
:1028E000295CDC3129541198A877129EF2E07F20F0
:1028F0008000285C002800D15BE11394012420466D
:10290000FFF7F8FC23465C022859421C2A51B248C2
:10291000295CFF312954C8B2232800D849E1FF209F
:102920004000285C002800D191E045208700EB554D
:1029300024201293FFF7DEFC295924312951A6489F
:102940002A5CDC322A5400200A97E855D0B20728C6
:1029500000D82EE17D208000281808273A4601F093
:1029600028FE3846FFF7C6FC2859083028519A48F7
:10297000295CF83129540A98129E2E54139CA9E020
:102980007F229200AA5C002A00D012E14E783246E3
:10299000083AD1B2302900D90BE10C92B11C0F9149
:1029A000C9B2884200D204E1894803F0A7F810991F
:1029B000695822AB04936A4613608A1C08302021B0
:1029C0000C9B00F04EFA109828588019C019411F2E
:1029D00008220498FFF7DFFA0C9A002800D0E8E0FC
:1029E00010982858811C22AE304601F0E2FD307864
:1029F000322800D0DDE01394109C2E5914982851F1
:102A00002420FFF777FC0F9AB01828517248295CF0
:102A1000891A29541AA808221599FFF7A6FB002045
:102A2000014602463B464B43169CE65CEC18237F6E
:102A30009A1893192377FF2B119A00D80246491C44
:102A40000829EFD10126FF2B139C43D9B1E00026C2
:102A5000684606602320C0002818242431462346F7
:102A600000F0D8F92046FFF745FC01200B9040020A
:102A700029582431295058482A5CDC322A54D0B2D3
:102A8000072800D895E01AA80822FFF76EFB304609
:102A900031463A464243169B9B5C3446AE18327F21
:102AA0005118CA1832772646FF2A0B9900D83146AA
:102AB000401C0828EDD1FF2A139C7AD80820FFF784
:102AC00019FC012670022958083129504248295C16
:102AD000F83129547F208000285C002803D145204C
:102AE000800001212954199FFFF72AFC2861002248
:102AF000022F214600D011467F239B00EB5C33431D
:102B00001B06234600D013461940002800D1044676
:102B10000C4017984440189F002F01D1012C48D138
:102B2000022028752C48285C002833D02969012907
:102B30001BD10120440229590978AE2901D1002F67
:102B400007D00022AE29014600D11146179A514004
:102B5000E977FFF7CFFB2859401C28511E49685CD4
:102B6000FF3068542969491E2961002900D16EE4AB
:102B70004C1EC0B208E00320287566E4FF01000087
:102B80001548285C002805D0A04200D80446002C37
:102B900000D04BE401F0C6FD30A9884203D101F01A
:102BA000C3FD01F052FC30A8008D00280BD13BB0D2
:102BB000F0BD012001F0B1FD30A900220A850549D0
:102BC0000A7501F0AAFD01F0A8FDC046241C0020F2
:102BD0008089D0C074180020FF010000F0B581B0DA
:102BE00000900B09012213405B42194C1C40CD0898
:102BF00015406D42174E2E404701774067404C0903
:102C0000144064421448204078408E0916407642B1
:102C1000124F37404740C80910404042104A024016
:102C20007A4098272F40009DED0E49012943C9B2F3
:102C3000794079251D404D40F32121406940AE2364
:102C400033404B401E2101405940104601B0F0BDB9
:102C5000E2996DB7618EBCF2C4B35F3EA8E2AB2EC1
:102C600070E4434FF0B581B015460E4607463C78F8
:102C7000012000210090FFF7B1FF002C11D07F1C34
:102C8000E2B242403C781046FFF7A8FF7F1C002CC0
:102C9000F6D106E0FFF7A2FF0246307850406D1EE5
:102CA000761C002DF6D10824FFF798FF641EFBD197
:102CB000009A504001B0F0BD70B514460A46014676
:102CC0000DA0FFF7CFFF23220546D54020239E1AF3
:102CD0000B46B3402B431646203E0D46F540002ED2
:102CE00000DA1D461F232B402370531F641C002A4B
:102CF0001A46E9D170BDC046626974636F696E633C
:102D000061736800F0B599B01D460346002617961A
:102D1000169601921670142967D11E980026002875
:102D2000314602D0012860D108210CAF3970781CDF
:102D30001422194601F03DFC1522314630460302AB
:102D40003878184308317F1C521E052909DB491FBA
:102D50000346CB401F241C4002AB9C55761C042923
:102D6000F5DC002AEBD1002907D00522511A884052
:102D70001F21014002A88155761C02A816AA3146DF
:102D8000FFF79AFF0020002E0146019A15D002A9F4
:102D90000A7800270199CC19202A23D2791CA9424C
:102DA00020D82B4602ADED5D11A77D5D25701D4637
:102DB000B1420F46EED3019A52180DA3161816AC65
:102DC0002478202C0ED20C18641CAC420AD816AC05
:102DD000245C1C5D3470401C0828EFD3002313547E
:102DE0000E1802E0002601980670304619B0F0BDBA
:102DF00071707A72793978386766327476647730B0
:102E000073336A6E35346B686365366D7561376C24
:102E10000000000070B582B005781424032D07DC93
:102E2000012D13D0022D0ED0032D17D120240DE03B
:102E3000AC1F032C01D2846808E0042D05D0052DB9
:102E40000CD1402402E01C2400E03024069D6E4694
:102E50003560746003F000F802B070BD022001F02C
:102E60005CFCB0B582B020246D466C60069C2C6082
:102E700003F03AF802B0B0BD80B501462020282901
:102E80000BDD2C2915DD412924DD42292DD06129B6
:102E90002CD062292BD1382080BD0A46242910DC91
:102EA000213A022A22D3232909D024291FD14220E2
:102EB00080BD2A2913DC292901D02A2917D13020E5
:102EC00080BD253A022A11D3272901D028290ED105
:102ED000282080BD2D2909D0412907D007E02B29C2
:102EE00001D02C2903D1402080BD392080BD022093
:102EF00001F013FCF0B585B01C4615460E4607469A
:102F00003878FFF7B9FF0C996A46D1604000083065
:102F100090600B9850600A981060384631462A46F7
:102F2000234603F02DF805B0F0BD000070B505464E
:102F30006878012400281FD0411E104A126801241D
:102F400000238A4200D01C468A4215D17D263101D9
:102F500001280FD002280FD10721284601F0C8FE12
:102F6000F60080190649884204D30721284601F05B
:102F7000BFFE811903484161204670BD281C002016
:102F8000B80B00002C1C002070B5054668780124A1
:102F9000002821D0411E114A1268012400238A42D0
:102FA00000D01C468A4217D17D263101821E032A99
:102FB0000ED20721284601F09BFEF6008019084931
:102FC000884207D30721284601F092FE811901E0CB
:102FD000012801D103484161204670BD281C002012
:102FE000B80B00002C1C002070B505466878012441
:102FF000002821D0411E114A1268012400238A4270
:1030000000D01C468A4217D17D263101821E022A39
:103010000ED20721284601F06BFEF6008019084900
:10302000884207D30721284601F062FE811901E09A
:10303000012801D103484161204670BD281C0020B1
:10304000B80B00002C1C002070B5054668780124E0
:1030500000281FD0411E104A1268012400238A4212
:1030600000D01C468A4215D17D26310101280FD09F
:1030700002280FD10721284601F03AFEF6008019F8
:103080000649884204D30721284601F031FE811900
:1030900003484161204670BD281C0020B80B000089
:1030A0002C1C002070B505466878012400281FD02C
:1030B000411E104A1268012400238A4200D01C4697
:1030C0008A4215D17D26310101280FD002280FD167
:1030D0000721284601F00CFEF600801906498842B7
:1030E00004D30721284601F003FE811903484161FA
:1030F000204670BD281C0020B80B00002C1C0020AE
:1031000080B50020FDF778FD002807D10449002094
:10311000086004497944024602F0B2F8002080BDFC
:10312000301D0020F44A000080B50120FDF764FD49
:10313000002807D104490020086004497944024668
:1031400002F09EF8002080BD301D0020CC4A000017
:1031500080B50649884205D00549884204D1FFF769
:10316000CFFF01E0FFF7E0FF002080BD02000080FC
:103170000100008080B50649884205D00549884293
:1031800004D1FFF7BDFF01E0FFF7CEFF002080BDB7
:10319000020000800100008080B50649884205D009
:1031A0000549884204D1FFF7ABFF01E0FFF7BCFF00
:1031B000002080BD020000800100008010B50F4992
:1031C00088420DD00E49884215D100242046FEF7D2
:1031D000DFFB0C4804600C4979442046224608E095
:1031E0000120FEF7D5FB0749002008600749794414
:1031F000024602F045F8002010BDC04602000080E3
:1032000001000080301D0020304A00001A4A0000F2
:1032100010B50F4988420DD00E49884215D10024BF
:103220002046FDF78FFA0C4804600C49794420468B
:10323000224608E00120FDF785FA074900200860D2
:1032400007497944024602F01BF8002010BDC04631
:103250000200008001000080301D0020DC490000D9
:10326000C649000080B50178490601D001F0FEFC96
:1032700080BD0000B0B505460F202840002401287D
:1032800013D0022813D1002908D00A4802F026FFE3
:1032900068B2002809DA02F09DFD06E0FF215231F4
:1032A0000448002202F046FF04462046B0BD02203A
:1032B00001F033FA6C1E0020F0B585B0F64D287889
:1032C000F64F0C2810DD0D287AD00E2800D1BAE078
:1032D000152833D1F248007801282FD1A8790007AA
:1032E0002CD4102001F019FA052800D1EEE00C28AA
:1032F00024D1EC4C012020760026E66120461830CF
:1033000002F0C0FEE06102F041F8E069FB4988424A
:1033100000D166E2002800D163E2F649884200D07D
:10332000EEE101F05DFBA6602068002800D158E2C4
:10333000E069F249884200D03AE152E2EE4C0120C5
:1033400020760025E5612046183002F09BFEE06102
:1033500002F01CF8E069B84200D0DBE001F040FB6D
:10336000A5602068002800D13BE2E069E34988427B
:1033700023D136E26068854200D332E202F0C4FE17
:10338000002800D02DE2A068E16838256843226853
:103390001018002902D0884700280AD0012803D13C
:1033A000A0684543206840190178490601D001F022
:1033B0005DFCA068451CA56020680028DAD110E2F9
:1033C000CD4C012020760025E5612046183002F022
:1033D00059FEE06101F0DAFFE069C849884200D196
:1033E000FFE1C449884200D149E1002800D1F8E159
:1033F0002068002800D1EEE1A0686168884200D30F
:10340000E9E102F081FE002800D0E4E1A068E16873
:103410003825684322681018002902D08847002800
:103420000AD0012803D1A0684543206840190178DB
:10343000490601D001F01AFCA068401CA060216878
:103440000029DAD1C7E1AC4C012020760026E661E4
:103450002046183002F016FEE06101F097FFE569A2
:10346000BD4200D0CDE001F0BBFA0020A060216891
:10347000002900D1B5E1E169A04A914223D1B0E130
:103480006168884200D3ACE102F03EFE002800D023
:10349000A7E1A068E1683825684322681018002970
:1034A00002D0884700280AD0012803D1A0684543EC
:1034B000206840190178490601D001F0D7FBA068C7
:1034C000401CA06021680029DAD18AE1EB4C012080
:1034D00020760026E6612046183002F0D3FDE06138
:1034E00001F054FFE069E749884200D179E1002802
:1034F00000D176E1E049884200D03EE101F070FA67
:10350000A6602068002800D16BE1E069DD498842AF
:1035100074D166E12068002800D15CE1A068616890
:10352000884200D357E102F0EFFD002800D052E1BD
:10353000A068E1683825684322681018002902D085
:10354000884700280AD0012803D1A0684543206895
:1035500040190178490601D001F088FBA068401CA1
:10356000A06021680029DAD135E16068864200D385
:1035700037E102F0C9FD002800D032E1A068E1681F
:103580003825684322681018002902D0884700288F
:103590000AD0012803D1A06845432068401901786A
:1035A000490601D001F062FBA068461CA6602068B5
:1035B0000028DAD115E16068864200D311E102F0FB
:1035C000A3FD002800D00CE1A068E168382568431D
:1035D00022681018002902D0884700280AD0012844
:1035E00003D1A0684543206840190178490601D0FD
:1035F00001F03CFBA068461CA66020680028DAD1D8
:10360000EFE06069002808D064216428024600D3F6
:103610000A46801A606100D1ECE09A48854200D1E8
:10362000DFE0002D00D1DCE02068002800D1D2E0EE
:10363000A0686168884200D3CDE002F065FD0028F3
:1036400000D0C8E0A068E1683825684322681018F7
:10365000002902D0884700280AD0012803D1A06899
:103660004543206840190178490601D001F0FEFA6F
:10367000A068401CA06021680029DAD1ABE001F00D
:10368000AFF9A5602068002800D1AAE0E0697D4973
:1036900088422CD1A5E0C046341D0020555010B002
:1036A000D01F00202C1C00206068854200D398E0C9
:1036B00002F02AFD002800D093E0A068E1683825D8
:1036C000684322681018002902D0884700280AD0D1
:1036D000012803D1A06845432068401901784906B4
:1036E00001D001F0C3FAA068451CA560206800283D
:1036F000DAD176E0555010B02C1C0020445010B0A8
:10370000A088049020680390EE79AB796F792A79CC
:10371000ED78E16868460560416012023A431B0299
:1037200033430398049901F0D3F92068002852D05C
:10373000A068616888424ED202F0E6FC00284AD1B7
:10374000A068E1683825684322681018002902D073
:10375000884700280AD0012803D1A0684543206883
:1037600040190178490601D001F080FAA068401C98
:10377000A06021680029DCD12DE02069002803D059
:10378000E978490801F0E0FA2068002823D0A06811
:10379000616888421FD202F0B7FC00281BD1A068E4
:1037A000E1683825684322681018002902D088474C
:1037B00000280AD0012803D1A06845432068401999
:1037C0000178490601D001F051FAA068401CA060C0
:1037D00021680029DCD16068A168814201D302F030
:1037E00093FC02F091FC002801D100F0A3FF01201E
:1037F00005B0F0BD22480168002900D10DE721483D
:103800008542EED0002DECD01F4F3868401C03F0ED
:10381000B5FF396001F0E4F8A6602068002800D107
:10382000FBE6E0691749884223D1F6E660688642E4
:1038300000D3F2E602F068FC002800D0EDE6A068B4
:10384000E1683826704322681018002902D08847A2
:1038500000280AD0012803D1A068464320688019B7
:103860000178490601D001F001FAA068461CA66063
:1038700020680028DAD1D0E6555010B02C1C00206A
:10388000301D0020445010B0281C002070B582B0BC
:103890001C4DA87F00280BD01B4C20463F301BA19D
:1038A000072200F086FE46200021215401200DE071
:1038B00018482A18294615316846FEF7F3FC0028F7
:1038C00006D01548784401F063FD002002B070BDB9
:1038D0003826AA5D0C4C3F3429463231204600F090
:1038E00068FEA85D202121542018401C85218900F4
:1038F00068506846FEF7FCF8A95D401820180021C2
:103900004170D3E774180020DC1C0020554E4B4E4C
:103910004F574E00A5030000A8420000F0B5A3B029
:10392000674C0020069020706648674F391821A820
:103930000822FEF71AFC65483E183046FEF7C4FA26
:1039400005463046FEF7E2FA00281FD05C4860A129
:103950000A2203F01FFF2078002800D091E0002DFC
:1039600023D05E480068006A002800D185E0BD18B9
:1039700002F0C4F801465D48285C6A461060514870
:103980002B180DA8002202F08FF976E0534800684A
:103990002826805D122852D14C483818FEF7BDFA0F
:1039A000002831D046484EA1D2E7FF263002184009
:1039B000000A01250028069804D0180A07A90870F3
:1039C0000120022507A9084303704819BA183D4988
:1039D0005118142204900392059300F0EAFDFE367C
:1039E000B85D002838D07A8C059883B20120002178
:1039F000934200D008466946086014210DAA50235E
:103A00000498FFF77FF938E034480068805D122899
:103A100015D12E483818FEF79FFA00280FD0002045
:103A2000E0714C20A0716071412020714320E07052
:103A30005F20A070502060704F2020708BE70B2219
:103A4000002D88D1164621483818FEF7B7F900280E
:103A500032D03B8C0C227EE701206946059A92B257
:103A60000A60486003980543A9B207A80DAD50232A
:103A70002A46FEF726FB0021295411480DA903F020
:103A800033FF38257A5D2B3439463231204600F039
:103A900090FD785D202121542018401C852189004B
:103AA000785021A8FEF724F8795D4018201806996F
:103AB0004170012023B0F0BD7B8C32464BE7C046FD
:103AC000DC1C0020CB02000074180020D302000090
:103AD0004F505F52455455524E000000241C0020A8
:103AE0004F505F435245415445000000CA02000058
:103AF000F0B5ADB00646DE4FF87FB97F002909D09A
:103B0000002807D10025002E00D07BE1FDA001F0A8
:103B10003FFC77E1002814D00025002E00D071E191
:103B20002B20F64900220A543F200A544820C8702E
:103B30005320887032204870502008700A71012587
:103B400060E129A800250822294600F029FDF44853
:103B50003C5C032C06D90025002E00D052E1E84839
:103B60007844D4E70296002C04950395059400D17F
:103B700091E0002001250B900390079004907E199E
:103B8000E74830180799425C491C002A03D10127F5
:103B90000729F8D900E0079FE14831182BAC08222B
:103BA0002046FEF7E2FA29A801462246FEF75EFB10
:103BB000DC4836183046FEF7A9F90A903046FEF781
:103BC0004BF904463046FEF77FF906903046FEF783
:103BD000A4F909903046FEF7BFF908903046FEF789
:103BE000EDF80C9420430A9C00280ED1002F01D040
:103BF000002C0AD128200899099A1143002968D07D
:103C0000C9490968085C122863D13046FEF7D6F826
:103C10000C990843002803D1002F5AD0002C58D00B
:103C2000C248BE4F385CC04909682822895C122905
:103C300006D109992143089A1143002902D020E0B6
:103C4000002C1ED100281CD0032004220C9900292E
:103C5000014600D11146069A002A00D0014670188C
:103C6000B3497918142200F041FD002802D00B98C6
:103C7000039006E00498000601210491002800D07A
:103C8000BCE030782D1809350B98401C059C0B9032
:103C9000A04200DA73E7A5480499090609D1385C07
:103CA000002806D000250298002800D0AAE0B4A081
:103CB0002DE73946153127A829AAFEF7F3FA00287F
:103CC00002980DD00025002800D09BE0B64878442B
:103CD0001DE700250298002800D093E09FA016E77A
:103CE0000125002800D08DE08520810013A80791D0
:103CF0007850002C00D185E00398C0B20A900027CC
:103D0000012609900C92884800682824005D12283A
:103D100015D182488019824941180B918149451873
:103D20002846FEF7F3F8002809D12846FEF7F5F8F3
:103D3000002804D12846FEF70FF9002811D07A4850
:103D40000068005D12280AD074488019744941182F
:103D50000B9174494018FEF7D9F8002801D00836B5
:103D60003FE02BA808220B99FEF7FFF934460834F0
:103D70006A4800196A4940180B90FEF7A5F80546F5
:103D8000002D2AD10B98FEF719F80B210C220028E0
:103D900000D0114689190891604A13462232203317
:103DA000002800D01A4610880990020A002001213C
:103DB000002A03D00DA80270012002210DAA104391
:103DC000099B03700C91C8B21018544A08995118F5
:103DD000534A8918142200F0ECFB0A98B84216D016
:103DE00026460C9A4D4880194D49405C3018461CB7
:103DF0007F1C01250598874284DB03E0002502989B
:103E0000002802D028462DB0F0BD4AA07FE6002D44
:103E10000C9914D044480068006A002839D03F4902
:103E20008C1901F06BFE01465D48205C6A4610600B
:103E30000B98C31C13A8002201F036FF29E0FF20D5
:103E4000FE30364A105CC9B2002813D0538C099852
:103E500084B2012000229C4200D010466A461060C5
:103E60000DA84018142113AA5023FEF74BFF10E0B1
:103E70007418002001206A46099B9BB213605060B1
:103E800014310DA813AC50232246FEF71AF9002175
:103E90002154444C13A9204603F026FD38251F4F1A
:103EA0007A5D26462B36394632310C91304600F089
:103EB00080FB785D20210B9131543018401C07990C
:103EC00078502BA8FDF714FE7A5D80183018002674
:103ED00046703F3420460C9900F06BFB785D0B99DF
:103EE00021542018401C0799785027A8FDF700FEA0
:103EF000795D401820184670012583E7DC1C0020FE
:103F00002D4000004572726F72203A204D6978652D
:103F10006420696E707574730000000074180020CE
:103F2000CB020000D3020000241C0020C7020000C6
:103F3000B30200004572726F72203A204D756C74A6
:103F400069706C65206368616E6765206F75747059
:103F5000757420666F756E64000000004572726FA4
:103F600072203A20556E7265636F676E697A656478
:103F700020696E707574207363726970740000003C
:103F80004572726F72203A206368616E6765206FB8
:103F90007574707574206E6F7420666F756E640032
:103FA000D5020000DC1C00209E3E000070B584B0ED
:103FB0000D4C26462B36684606600C48A830012575
:103FC000002329463246FEF725FF20464330694646
:103FD00008230E604B6088602B2105A2204601F06B
:103FE0007DFB284604B070BDDC1C00207418002046
:103FF000252E2A482E2E2E252E2A480070B5002464
:104000002046FFF775FD00284AD0264800260660A6
:10401000254804210160254D2648784428600B205E
:10402000686025487844286124487844E860032083
:104030002876EE612846183002F024F8E86101F095
:10404000A5F900F0CDFCAE6028680124002827D037
:10405000E8691749884221D122E0686886421FD268
:1040600002F052F800281BD1A868E968382670438E
:104070002A681018002902D0884700280AD0012891
:1040800003D1A8684643286880190178490601D001
:1040900000F0ECFDA868461CAE6028680028DCD162
:1040A000204670BD281C0020301D00202C1C002044
:1040B000445010B0E63D000029F1FFFF5BEFFFFF29
:1040C000B0B5FFF72BFC7320C0002C490858E7223D
:1040D00092008958491C0B1A29483F30142129A203
:1040E00001F0FCFA2A48002505602A4803210160F6
:1040F000294C2B4878442060092060602948784486
:10410000206129487844E0602176E5612046183036
:1041100001F0B8FFE06101F039F900F061FCA56041
:104120002068002827D0E0691C49884221D122E07C
:10413000606885421FD201F0E7FF00281BD1A0680C
:10414000E1683825684322681018002902D08847A2
:1041500000280AD0012803D1A068454320684019EF
:104160000178490601D000F081FDA068451CA560DA
:1041700020680028DCD10120B0BDC04674180020A2
:10418000DC1C00206F75747075742023256400009A
:10419000281C0020301D00202C1C0020445010B092
:1041A000743F000073F0FFFFE1EEFFFF70B5FFF713
:1041B0006DFB002400284AD02648002606602648C9
:1041C00002210160254D2748784428600720686057
:1041D00025487844286125487844E86003202876FB
:1041E000EE612846183001F04DFFE86101F0CEF88D
:1041F00000F0F6FBAE6028680124002827D0E869AB
:104200001749884221D122E0686886421FD201F016
:104210007BFF00281BD1A868E968382670432A680C
:104220001018002902D0884700280AD0012803D19D
:10423000A8684643286880190178490601D000F033
:1042400015FDA868461CAE6028680028DCD1204611
:1042500070BDC046281C0020301D00202C1C0020F2
:10426000445010B098400000C3EFFFFF6DEEFFFF19
:10427000B0B5FFF79BFE25480025056024480221C4
:104280000160244C25487844206007206060244861
:104290007844206123487844E06003202076E5617B
:1042A0002046183001F0EEFEE06101F06FF800F0FA
:1042B00097FBA5602068002827D0E069164988424E
:1042C00021D122E0606885421FD201F01DFF002845
:1042D0001BD1A068E16838256843226810180029BE
:1042E00002D0884700280AD0012803D1A06845439E
:1042F000206840190178490601D000F0B7FCA06899
:10430000451CA56020680028DCD1B0BD281C002019
:10431000301D00202C1C0020445010B062410000D1
:1043200029EFFFFF0BEEFFFF70B52C4E3446C8346B
:10433000204603F0E1FA2021215420180025457081
:10434000C720315426480560264802210160264CCA
:104350002748784420600720606026487844206120
:1043600025487844E06003202076E5612046183037
:1043700001F088FEE06101F009F800F031FBA56072
:104380002068002827D0E0691849884221D122E01E
:10439000606885421FD201F0B7FE00281BD1A068DB
:1043A000E1683825684322681018002902D0884740
:1043B00000280AD0012803D1A0684543206840198D
:1043C0000178490601D000F051FCA068451CA560A9
:1043D00020680028DCD1012070BDC0466C1E002082
:1043E000281C0020301D00202C1C0020445010B040
:1043F00026390000B1EEFFFFC7EBFFFF10B58CB010
:1044000001AC204603F056FA20850D49084206D13A
:1044100001A800F01AF80020C04301F01DFE00F0D2
:1044200081F901A9884203D100F07EF900F00DF86E
:1044300001A8008D002801D10CB010BD00F06DF96D
:10444000FFFF000000208146704781467047000052
:10445000F0B581B000920F460546484B9F420FD001
:10446000464C40262046314603F08EF900984028FD
:10447000024600D332462046394600F09AF83F4BB8
:10448000987801280BDC00282BD0012869D1D81C92
:1044900004211C4601F0C8FC402120462CE00228E3
:1044A00028D005285DD11879D97809020143344A0A
:1044B0001068002481425AD1324E00988019071F9B
:1044C000106800281BD01446394631402E48026837
:1044D000914200D907683A4632402C480068591D7D
:1044E00031E000249C715C711C71DC704021184625
:1044F000A8473CE021484021A847002437E09879AC
:104500005979090201432248016001684908A82934
:104510002DD8144601681C4801601C491D4A0A60D8
:1045200059781A7812020A431B490A601B49009AFB
:104530005718394631400268914200D907683A4617
:104540003240D91D134800F034F837400F48016855
:10455000C91901600C480168C91B01602068401C32
:1045600020600948016801200224002903D1044881
:10457000002101602046C0B201B0F0BD70200020D3
:10458000601E0020FFFF0000681E0020C01F0020EA
:10459000641E00206C1E0020C41F0020F9FF0100D3
:1045A00080B50B46002A03D011461A4603F0F6F8F0
:1045B00080BDB0B588420DD9002A14D0491E5242A0
:1045C000401E0023DB431C4654430D5D0555521C21
:1045D000F9D108E0002A06D000239CB20D5D0555F4
:1045E0005B1C521EF9D1B0BD01480021016070472B
:1045F000601E0020F0B585B0019300920E46039036
:10460000002E47D0324C00202060324932480860EA
:10461000324F781D39250290294603F0B5F830480D
:1046200001460868000A3870086878700520B8707C
:104630002068000AF87020683871B1B2206800283C
:1046400004910AD03B203B290E4600D30646214860
:10465000024611680298154609E0300A7871BE7169
:1046600039290E4600D32E461A4D2968F81D3246C8
:10467000FFF79FFF164C2868801928602068401CAF
:10468000206040213846039A90470498861B1548BD
:104690000642BED10E48002404608020019D0542E0
:1046A00001D001F097FBA8060FD40C4C009D4021CF
:1046B0002046A847C2B2402AF9D803982146FFF7FE
:1046C000C7FE0228F3D108480468A0B205B0F0BDC7
:1046D000601E0020C01F00206C1E002070200020E3
:1046E000C41F0020FFFF0000641E002070B5431EA1
:1046F000491E52420020C443002A0CD0264656438D
:104700008D5D9E5D521CAE42F6D00020C14301205B
:10471000AE4200D80846C0B270BD80B501464846DA
:1047200003F0D4F84846704700204946002900D0DD
:104730004869704780B501F0E7FC00280BD10648B6
:10474000602101700021417002228270C1700171EC
:10475000052101F0C3FC80BD341D002010B51348B5
:10476000C078032807DC01280DD002281DD110488D
:1047700002F02CFB10BD042814D0082815D10C48D9
:1047800002F022FB10BD0A4C0121204602F017FB6B
:10479000204602F0F4FA07480078002805D01020DF
:1047A000FFF7BBFF024802F00DFB10BD341D0020D7
:1047B000B8200020D01F00207F2101400148405C2C
:1047C0007047C046D11F002080B5104801790429E8
:1047D00008D0022911D001290ED1811D0D4802F007
:1047E000D0F980BDC2787F2111404279084B5A54DC
:1047F000821D084802F0F3F980BDC2787F21114084
:10480000821D044802F045FA80BDC046341D0020D8
:10481000D11F0020B8200020F0B581B01446054615
:10482000FF2C3BD8204E50203070E01C0091010A34
:104830007170B07080200543F57020203071747164
:10484000062130461F4601F049FC0098214601F040
:1048500045FC781C022821D306E0152902D1B07945
:1048600000071DD500F022F801F04EFC002801D110
:10487000FFF760FF4B2081000022304601F05AFC18
:1048800031780628E9D11029E7D1F078A842E4D19F
:1048900030790228E1D17079A042DED101B0F0BDBB
:1048A0001020FFF73AFFC046341D002080B51E4897
:1048B000827841780902114300780F280ADC0E281B
:1048C00010D00F281DD10020042921D1FFF746FF69
:1048D000012080BD102818D0162812D100F032F81F
:1048E000012080BD1148016800290AD002686421B6
:1048F000632A00D801680268511A01600068002824
:104900000BD00220FEF7D8FC80BD0020062900D283
:1049100080BDFFF759FF012080BD054800210170CF
:104920001020FFF7FAFEC046341D0020CC1F0020E7
:10493000D71F002080B50A46014682201423FFF7C6
:104940006BFF80BD80B50B480178002910D10A4962
:1049500005220A700A210170084881784278120203
:104960000A4307490A800A88C11C0648FFF721FE4E
:1049700080BDC046D71F0020D01F0020341D00205E
:10498000D81F00206C1E002010B5082001F00CFA82
:104990000A48002404700A4804800A4804800A482F
:1049A00004800A4804700A480460FFF71DFE0948A5
:1049B0000460094804600948046010BDD71F002046
:1049C000DA1F0020D81F0020DC1F0020D01F00208D
:1049D000C81F0020E01F0020E41F0020E81F002067
:1049E0000148002101607047E01F0020B0B50D466E
:1049F0000446206B00280CD001F080F801462046C8
:104A0000884701F07BF80021002810D0012800D051
:104A10000446002D07D02046A8470021002806D0D4
:104A2000012800D004462046FEF71CFC0121084660
:104A3000B0BDB0B58EB00C460546686B00280CD0F2
:104A400001F05CF801462846884701F057F800213C
:104A5000002816D0012800D005466846382229468D
:104A6000FFF7A7FD686A0490A86A0590002C04D09F
:104A70002846A0470021002803D06846FEF7F2FB35
:104A8000012108460EB0B0BDB0B50D460446E06A3F
:104A900000280CD001F032F801462046884701F08A
:104AA0002DF80021002810D0012800D00446002D48
:104AB00007D02046A8470021002806D0012800D0B2
:104AC00004462046FEF7CEFB01210846B0BD00009B
:104AD000F0B587B0029303920591002977D0049036
:104AE0000D9801900C98009000253C4B06952F46A0
:104AF0001E4601F009FB002855D138206843049C6C
:104B0000251833461A680121954200D0069906916E
:104B10002056002841DA2020285C0221695E0A1A0A
:104B2000039CA24239DC4118EA888918039A8A4218
:104B300033DA04216C5E221A02998A422DDC201895
:104B4000298940180299814227DA1868854210D0D5
:104B5000186800280DD00198002805D02846019932
:104B600088473346002818D018680199FFF73EFFA0
:104B700008E00098012809D002280ED128460199A2
:104B8000FFF782FF3346002807D022E0284601992C
:104B9000FFF74FFF334600281ED17F1CFDB205985A
:104BA0008542A5D300E03346069800060FD018686A
:104BB00000280CD001F0A8FA3146002807D1086877
:104BC0000199FFF713FF002801D00020306007B0E3
:104BD000F0BD00201860FAE71D60F8E7E01F002034
:104BE000F0B589B00C46014602AD1C222846019260
:104BF000FFF7DFFC2168E98062682A81A0681A4F0C
:104C000065233B7092B242438BB25343D9084E1C8A
:104C10000722134200D10E463146009104268640F9
:104C200070181D30010A7970B8700321384601F000
:104C300055FA2846019901F051FAA068387001210F
:104C4000384601F04BFAE06800F058FFB1B201F0CD
:104C500045FA009885B2206900F050FF294601F01E
:104C60003DFA09B0F0BDC046341D002070B50446C1
:104C700020787F26064001F047FA002830D1002E28
:104C80002ED0E06900281DD000F038FF0546052E23
:104C900002D1A07E002824D0284602F02DFE064630
:104CA00012486521017031461C310A0A4270817038
:104CB000032101F013FA1C21204601F00FFAB1B2D2
:104CC00028460BE0094865210170002141701C2530
:104CD0008570032101F002FA2046294601F0FEF911
:104CE00070BD20462946FFF77BFF70BD341D0020B4
:104CF00080B50A46C16900F001F880BD70B516465E
:104D000004460025002C1CD02078072801D002285A
:104D100017D1084600F0F2FE002812D002F0ECFD98
:104D20004643E08886420CD9311A7D200001484371
:104D3000A17E02F09DFCA17A4900C9B264224A43D7
:104D40001518284670BD0000F0B581B00446002C4F
:104D50002BD0174802688A4203D1164A13685B1C9D
:104D6000136006680E43134A1568134F002901D0DB
:104D7000066004E00023036013607B1C1E43006890
:104D8000884201D000201060082D0BD30321284653
:104D900002F0F4FC012080073043002900D03046A7
:104DA000384000E030462946A04701B0F0BDC0467B
:104DB000E41F0020E81F0020FFFFFF7FF0B583B055
:104DC0000D4604460F20044207D020462946FEF730
:104DD00051FA0546A8B203B0F0BD102727404B207A
:104DE00086006849002D6ED0002F6CD102917D2085
:104DF00000016549086065480078082817DD092822
:104E00001FD00A2844D13046253080B2854200D9CF
:104E1000B5E0614853210170290A41708570032172
:104E200001F05CF95A48294601F058F92CE00728AE
:104E30002CD15F487844002220232946FFF7DAFB73
:104E400022E0E81D01904008A92800D397E07C20CB
:104E5000C0430D304E494855481900220092427017
:104E60000298001DAA1C0240481D0D46FFF7A1FB39
:104E7000052228460099FFF793FB019883B2454825
:104E800083212A4601F0D2FC404908E0002873D073
:104E900020462946FEF7EEF93C4900286CD1002552
:104EA0000D703E4805803E4805803E4805803E48DE
:104EB0000570A0068ED4FFF73DFC2006029902D5AE
:104EC00000F088FF0299002F0CD1600650D42F48C3
:104ED0000021017031480180314801803148018052
:104EE000314801702C4C2E4F02E00220FEF7E4F90D
:104EF00001F00AF9002801D1FFF71CFCB1B200252E
:104F000020462A4601F016F9C11EA27863781B02DA
:104F10001343994215D124490978002902D0FFF79B
:104F2000C5FCE5E721780F2906D0102912D01629F3
:104F3000DBD1FFF707FD12E0042802D1FFF70EFCDA
:104F4000D6E70020114908701449088038801549B7
:104F50000880CDE7062800D23CE7FFF735FC38880B
:104F60000028C5D011480068074908603D8831E72E
:104F70000B48008845182DE70920FFF7CEFB0220DB
:104F8000FFF7CBFBFBFF0000CC1F0020D71F00204A
:104F90006C1E0020EC1F0020341D0020DA1F0020B2
:104FA000D81F0020DC1F0020D01F0020C81F0020B9
:104FB000FDFAFFFFB0B582B001AC6621217000257B
:104FC00065700121A170E0700421204601F086F88F
:104FD000032120462A4601F0ADF802B0B0BD000022
:104FE000F0B581B007465F4C254614353822284677
:104FF0003946FFF7DEFA2169A068002903D0884707
:105000000346A06803E01C21414322685318002690
:10501000002810D02269411E002A0FD008460097B0
:1050200037462E461D4690472B4635463E46009F46
:105030000246A06806E03046324603E01C224A439E
:1050400021688A186168491E884210D22169401C73
:10505000002908D000951D461646884732462B4643
:10506000009D064603E01C214143206846187878DD
:1050700040280ADC202822DC102834D0202867D1E0
:105080005969002000296BD151E0802822DC412899
:1050900033D042285CD159690020002960D1D968F9
:1050A00000295DD16268511E012A59D0A2688A4246
:1050B00056D0F168002953D13069206348E0212897
:1050C00031D0222844D1194614315A690020002ACF
:1050D0002FD145E0822835D0812839D1A168002020
:1050E000002935D13CE0D9680020002938D021635F
:1050F000587E00282CD0E0822AE05969002000293F
:105100002ED1D96800292BD1A168002928D0616847
:10511000012925D0D168002922D1516900291FD148
:105120001069206314E059690020002918D019463D
:10513000103108682063187E002809D0E08208201A
:10514000A08505E06068A168421E0020914207D05A
:10515000E268002A284603D01434184621469047B6
:1051600001B0F0BD24200020F0B581B005463B4FD2
:105170003969B868002902D08847064603E01C2137
:1051800041433868461801243548854214DD3548C6
:10519000854217D0344885421CD0344885425AD1C4
:1051A000306800284ED0B46800F0A8FC0146FA68C8
:1051B000204600F065F84DE02D4885420AD0284889
:1051C000854248D17968B8684A1E0024012190427E
:1051D00005D340E00024E143B86800283BD04018E4
:1051E000B860244800240460234DAC60286800287F
:1051F00031D0E869214988422DD000282BD00024E5
:1052000020466968884226D200F07EFF002822D11D
:10521000A868E968382670432A681018002902D067
:105220008847002807D0012803D1A868464328688A
:105230008019FEF717F8A868401CA86029680029A3
:10524000DFD108E07068002805D000F057FC014667
:10525000B06888470024204601B0F0BD242000201B
:1052600002000080020000400100004003000080B6
:1052700001000080E01F00202C1C0020445010B0D2
:10528000F0B583B002920D460190374E0020009099
:105290007060002D15D0384979441C2728463A46BD
:1052A000FFF724FA00280CD0344C7C447068401C72
:1052B00070607843281821463A46FFF717FA00280D
:1052C000F4D101990846013005D0706888420098F1
:1052D00000D30846B060356000250298F060356163
:1052E000224C274878442060092060602548784493
:1052F000206125487844E06003202076E56120465F
:10530000183000F0BFFEE06100F040F8184805607A
:10531000A5602068002824D0E069164988421ED183
:105320001FE0606885421CD200F0EEFE002818D114
:10533000A068E1683825684322681018002902D067
:105340008847002807D0012803D1A068454320687A
:105350004019FDF787FFA068451CA560206800285C
:10536000DFD103B0F0BDC046242000202C1C00205B
:10537000E01F0020445010B000350000EE34000063
:10538000BC32000077FEFFFFE9FCFFFF7047000022
:1053900083B0F0B58CB0044611A80EC0002C00D12B
:1053A0008DE111A8079086E125460026014602E01E
:1053B000A9194978761CCAB2002A01D0252AF7D14A
:1053C000AC19002E0CD0C0B2FFF7F4FD012E06D0B0
:1053D0000127E85DFFF7EEFD7F1CB742F9D1217888
:1053E000C8B2252800D066E1A819431C002120205E
:1053F00004900A200691039105910422D5430222CC
:105400001C462378641C00272D2B0DDC3946F8D070
:10541000252B7FD02A2B00D0FAE02178732900D0E9
:10542000F6E0114623464BE0472B14DC1A46303A8F
:105430000A2A34D2302B049D2A4600D11A46059FF1
:10544000002F00D02A460A257D43EB18303B0593F8
:1054500004922346D1E7672B04DD722B08DD732B02
:1054600034D10AE0622B36DC482B43D1012002E024
:10547000682B45D1002003901020079B1F1D079724
:1054800003273940521C1F68012900D1BBE00229C3
:1054900000D1BAE0032911462346AED0C1E02E2B3D
:1054A00000D0B5E021782A2900D0B1E06278631CF1
:1054B0000121482A04D0682A02D0732A00D0A7E02C
:1054C000079A141D07941268069296E7752B23D04D
:1054D000782B18D09CE0632B00D18DE0642B00D09A
:1054E00096E00798011D07910068C11742184A40CD
:1054F000C00F16E0582B00D08AE00120039002E094
:10550000702B00D084E00798011D079102680020ED
:10551000102607E0252073E00798011D0791026817
:1055200000200A26029001270692964212D80125F1
:1055300030460746314602F09BF8A84209D1304672
:1055400078430599491E0591069988423D46F0D950
:1055500000E02F460025E943029B002B00D11946AD
:105560000598019140180499CAB2302A06D1002B3F
:1055700004D008A92D230B7001250023811E0D29BD
:105580000CD8411E0AD008A82843029302F006F95D
:10559000029B0598401901994018451E002B03D025
:1055A00008A82D2141556D1C002F1BD00398002801
:1055B00002D04948784401E046487844059006986E
:1055C000394602F055F8314602F0D8F80598405CAB
:1055D00008A948553846314602F04AF86D1CBE42CB
:1055E0000746ECD9002D66D008AE3078FFF7E2FC14
:1055F000761C6D1EF9D15EE00798011D07910078B9
:10560000FFF7D8FC57E0069A11E0387800283FD021
:105610002D48784440194079FFF7CCFC6D1CF7D138
:1056200049E02A1DB9184978521C0029FAD106927E
:105630001028039E1FD106981AE038780F250540E0
:105640000009012E05D0002E0ED1C0B21F4E7E449F
:1056500002E0C0B21E4E7E44305CFFF7ABFCE8B205
:10566000305C039EFFF7A6FC0698401E7F1C069048
:105670000028E2D11FE000260698002810D000255F
:10568000069E785DFFF796FC6D1CAE42F9D107E0EF
:10569000281D0699451A2020FFF78CFC6D1CFAD1B5
:1056A0000599B14207D9881B05D0751A2020FFF74C
:1056B00081FC6D1CFAD12078002800D074E60CB073
:1056C000F0BC01BC03B00047C231000066310000ED
:1056D0006E310000FA3100001032000081B0F0B5E8
:1056E00090B015460C460A901593022C00D2F5E1B5
:1056F0000A98002800D1F1E1002D00D1EEE100214F
:105700000A9807912246FEF74BFF15A80B902878C0
:10571000002800D1E2E10799C943671E0591C2E163
:105720002819295D25290BD103970292431C0020DB
:10573000202108910A21019100900490099056E0DF
:1057400005460A9221E12B4608464BE0472B13DC25
:10575000194630390A2934D2302B089900D119461C
:10576000099F002F00D008990A227A43D218303AB4
:1057700009922B4608913AE0672B04DD722B09DD74
:10578000732B46D10AE0622B48DC482B55D101220D
:10579000049201E0682B56D1102201920B9A131D3E
:1057A0000B93032318404F1C1168012800D1D0E04F
:1057B000022800D1D2E003282B463846069F16D097
:1057C000E9E02E2B00D0CCE028782A2800D0C8E0D1
:1057D00069786B1C0120482904D0682902D07329FC
:1057E00000D0BEE00B990A1D0B92096800910221BE
:1057F0001D462B786D1C00222D2BA7DC1046F8D0FF
:10580000252B2AD02A2B00D0ABE0287873289AD0F9
:10581000A7E0752B23D0782B18D0A2E0632B00D102
:105820008DE0642B00D09CE00B98011D0B9100686B
:10583000C11742184A40C00F16E0582B00D090E024
:105840000120049002E0702B00D08AE00B98011D2B
:105850000B9102680020102707E0252073E00B98C9
:10586000011D0B91026800200A27069001260A926A
:10587000974212D8012438460646394601F0F8FE10
:10588000A04209D1384670430999491E09910A99E5
:1058900088423446F0D900E026460024E143069BC6
:1058A000002B00D119460998019140180899CAB2F5
:1058B000302A06D1002B04D00CA92D230B70002315
:1058C0000124811E0D290CD8411E0AD00CA82043AA
:1058D000069301F063FF069B09980019019940188F
:1058E000441E002B03D00CA82D210155641C0498E4
:1058F000002E1AD0002802D07F48784401E07D486D
:10590000784409900A98314601F0B2FE394601F018
:1059100035FF0998405C0CA908553046394601F01E
:10592000A7FE641CB7420646ECD9039B9C4200D3F9
:105930001C460CA9029E304622461F461CE00B98CE
:10594000011D0B910068029908700398401E491CC4
:1059500016E0009C059A039B069F24E00878002827
:1059600077D00520039F052F3C4600D304465E49AF
:105970007944029E30462246FEF71BFE381B311941
:105980000A910746002800D1A8E028780028059948
:1059900000D088E0A2E0059A1446039B08194078DD
:1059A000641C0028FAD101981028029846D1002CD6
:1059B00076D008910A988318D01B8642314600D8C9
:1059C000014603914A430292501C019000203A463E
:1059D0000A9302995B1809900899085C0F27074001
:1059E000000903998918491C022977D304990129D0
:1059F00004D000290AD13E49794401E03B49794469
:105A0000C0B2085C1870F8B2085C587001989042F7
:105A100064D0921E0A9B9B1C0998401CA042D7D3BD
:105A2000099005990698081A864200D80646084645
:105A3000704318180A90B018471C1CE09C4200D311
:105A40001C46224606461F46FEF7B3FD381B311999
:105A50000DE0039B009F9F4200D31F462021029E22
:105A600030463A46FEF79CFD0398C01BF1190A9197
:105A70000746002832D00998A04286D9041B3E462A
:105A8000B44200D3344620210A9F38462246FEF70E
:105A900087FD361B3F190A973746002E1ED074E744
:105AA0001F460A9071E70E46079C03E028194078CC
:105AB000761E641CC0B2002801D02528F6D1BC4255
:105AC00000D33C460A9829462246FEF772FD069707
:105AD0003F1B0A980219002F00D021E6002010B0C9
